{
  "contractName": "Transaction",
  "abi": [
    {
      "inputs": [],
      "name": "receiver",
      "outputs": [
        {
          "internalType": "address",
          "name": "",
          "type": "address"
        }
      ],
      "stateMutability": "view",
      "type": "function",
      "constant": true
    },
    {
      "inputs": [
        {
          "internalType": "address payable",
          "name": "to",
          "type": "address"
        },
        {
          "internalType": "uint256",
          "name": "amount",
          "type": "uint256"
        }
      ],
      "name": "sendEther",
      "outputs": [],
      "stateMutability": "payable",
      "type": "function",
      "payable": true
    }
  ],
  "bytecode": "0x608060405234801561001057600080fd5b506103bb806100206000396000f3fe6080604052600436106100295760003560e01c8063c1756a2c1461002e578063f7260d3e1461004a575b600080fd5b61004860048036038101906100439190610246565b610075565b005b34801561005657600080fd5b5061005f610189565b60405161006c91906102a7565b60405180910390f35b816000806101000a81548173ffffffffffffffffffffffffffffffffffffffff021916908373ffffffffffffffffffffffffffffffffffffffff16021790555060008060008054906101000a900473ffffffffffffffffffffffffffffffffffffffff1673ffffffffffffffffffffffffffffffffffffffff16836040516100fc906102f3565b60006040518083038185875af1925050503d8060008114610139576040519150601f19603f3d011682016040523d82523d6000602084013e61013e565b606091505b509150915081610183576040517f08c379a000000000000000000000000000000000000000000000000000000000815260040161017a90610365565b60405180910390fd5b50505050565b60008054906101000a900473ffffffffffffffffffffffffffffffffffffffff1681565b600080fd5b600073ffffffffffffffffffffffffffffffffffffffff82169050919050565b60006101dd826101b2565b9050919050565b6101ed816101d2565b81146101f857600080fd5b50565b60008135905061020a816101e4565b92915050565b6000819050919050565b61022381610210565b811461022e57600080fd5b50565b6000813590506102408161021a565b92915050565b6000806040838503121561025d5761025c6101ad565b5b600061026b858286016101fb565b925050602061027c85828601610231565b9150509250929050565b6000610291826101b2565b9050919050565b6102a181610286565b82525050565b60006020820190506102bc6000830184610298565b92915050565b600081905092915050565b50565b60006102dd6000836102c2565b91506102e8826102cd565b600082019050919050565b60006102fe826102d0565b9150819050919050565b600082825260208201905092915050565b7f556e61626c6520746f2073656e64204574686572000000000000000000000000600082015250565b600061034f601483610308565b915061035a82610319565b602082019050919050565b6000602082019050818103600083015261037e81610342565b905091905056fea2646970667358221220799ebc45cffd1248819d5aab945d6cb1a1f0fbab48439be7e66d27d51b4e09d864736f6c634300080d0033",
  "immutableReferences": {},
  "source": "// SPDX-License-Identifier: MIT\r\npragma solidity >=0.4.22 < 0.9.0;\r\n\r\ncontract Transaction \r\n{\r\n\r\n    address public receiver;\r\n\r\n    function sendEther (address payable to, uint256 amount) public payable\r\n    {\r\n        receiver = to;\r\n\r\n        (bool sent, bytes memory data) = receiver.call{value: amount}(\"\");\r\n\r\n        require(sent, \"Unable to send Ether\");\r\n\r\n    }\r\n\r\n}",
  "sourcePath": "C:\\DApp\\Ethersend\\contracts\\Transaction.sol",
  "compiler": {
    "name": "solc",
    "version": "0.8.13+commit.abaa5c0e.Emscripten.clang"
  },
  "schemaVersion": "3.4.7",
  "updatedAt": "2007-01-01T08:42:11.880Z",
  "networkType": "ethereum",
  "devdoc": {
    "kind": "dev",
    "methods": {},
    "version": 1
  },
  "userdoc": {
    "kind": "user",
    "methods": {},
    "version": 1
  }
}