{
  "contractName": "Transactionx",
  "abi": [
    {
      "inputs": [],
      "stateMutability": "payable",
      "type": "constructor"
    },
    {
      "inputs": [],
      "name": "receiver",
      "outputs": [
        {
          "internalType": "address",
          "name": "",
          "type": "address"
        }
      ],
      "stateMutability": "view",
      "type": "function"
    },
    {
      "stateMutability": "payable",
      "type": "receive"
    },
    {
      "inputs": [
        {
          "internalType": "address payable",
          "name": "to",
          "type": "address"
        },
        {
          "internalType": "uint256",
          "name": "amount",
          "type": "uint256"
        }
      ],
      "name": "sendEther",
      "outputs": [],
      "stateMutability": "payable",
      "type": "function"
    }
  ],
  "bytecode": "0x60806040526103c6806100136000396000f3fe60806040526004361061002d5760003560e01c8063c1756a2c14610039578063f7260d3e1461005557610034565b3661003457005b600080fd5b610053600480360381019061004e9190610251565b610080565b005b34801561006157600080fd5b5061006a610194565b60405161007791906102b2565b60405180910390f35b816000806101000a81548173ffffffffffffffffffffffffffffffffffffffff021916908373ffffffffffffffffffffffffffffffffffffffff16021790555060008060008054906101000a900473ffffffffffffffffffffffffffffffffffffffff1673ffffffffffffffffffffffffffffffffffffffff1683604051610107906102fe565b60006040518083038185875af1925050503d8060008114610144576040519150601f19603f3d011682016040523d82523d6000602084013e610149565b606091505b50915091508161018e576040517f08c379a000000000000000000000000000000000000000000000000000000000815260040161018590610370565b60405180910390fd5b50505050565b60008054906101000a900473ffffffffffffffffffffffffffffffffffffffff1681565b600080fd5b600073ffffffffffffffffffffffffffffffffffffffff82169050919050565b60006101e8826101bd565b9050919050565b6101f8816101dd565b811461020357600080fd5b50565b600081359050610215816101ef565b92915050565b6000819050919050565b61022e8161021b565b811461023957600080fd5b50565b60008135905061024b81610225565b92915050565b60008060408385031215610268576102676101b8565b5b600061027685828601610206565b92505060206102878582860161023c565b9150509250929050565b600061029c826101bd565b9050919050565b6102ac81610291565b82525050565b60006020820190506102c760008301846102a3565b92915050565b600081905092915050565b50565b60006102e86000836102cd565b91506102f3826102d8565b600082019050919050565b6000610309826102db565b9150819050919050565b600082825260208201905092915050565b7f556e61626c6520746f2073656e64204574686572000000000000000000000000600082015250565b600061035a601483610313565b915061036582610324565b602082019050919050565b600060208201905081810360008301526103898161034d565b905091905056fea264697066735822122097e3ebdc391033ed71942a1b5fa7e11886df0f85780f79603656f7baf3aa32b864736f6c634300080d0033",
  "immutableReferences": {},
  "source": "// SPDX-License-Identifier: MIT\r\npragma solidity >=0.4.22 < 0.9.0;\r\n\r\ncontract Transactionx \r\n{\r\n\r\n    address public receiver;\r\n\r\n    constructor () payable {}\r\n\r\n    receive() external payable {}\r\n\r\n    function sendEther (address payable to, uint256 amount) external payable\r\n    {\r\n        receiver = to; //sender = msg.sender; \r\n\r\n        (bool sent, bytes memory data) = receiver.call{value: amount}(\"\");\r\n\r\n        require(sent, \"Unable to send Ether\");\r\n\r\n    }\r\n\r\n}",
  "sourcePath": "C:\\DApp\\ethersend\\contracts\\Transaction.sol",
  "compiler": {
    "name": "solc",
    "version": "0.8.13+commit.abaa5c0e.Emscripten.clang"
  },
  "schemaVersion": "3.4.7",
  "updatedAt": "2007-01-01T08:23:31.645Z",
  "devdoc": {
    "kind": "dev",
    "methods": {},
    "version": 1
  },
  "userdoc": {
    "kind": "user",
    "methods": {},
    "version": 1
  }
}